:02000002D0002C
:1040000000400D0028640D00000006000C000501B2
:08401000040135080000000066
:0440180008600D002F
:1040200009480A49884208B505D0094A824202D0A7
:10403000121A01F0A7FF0748074A0021121A01F0DF
:10404000AFFF014808BD00BF78E5032084630D0081
:10405000F4E50320F4E50320F0E7032070B5074EF4
:10406000074C00F0D1FFA41BA4080025A54200D1F5
:1040700070BD56F8043B98470135F7E754630D00CF
:1040800078630D0000F040BA08B500F0C3FABDE84F
:10409000084000F07BBF00F0E7BD00F0E5BD00F098
:1040A000EBBD0078B0FA80F040097047012303703F
:1040B000704703681847012A03D0022A03D0002062
:1040C00070470160FBE70B680360F8E710B5012358
:1040D00003748368044643B1C0689847012363743E
:1040E0000020BDE8104000F053BC00680028F5D067
:1040F00083680BB901F03FFBC368EEE70EB403B56C
:1041000003AB012153F8042B019300F0C6FE02B06B
:104110005DF804EB03B0704710B58368044613B133
:10412000032201469847204610BD38B5056804466D
:1041300035B12846FFF7F0FF1021284601F015FBA6
:1041400020461421BDE8384001F00FBB2DE9F043B3
:10415000074685B08846142029491646994601F03D
:1041600006FB044630B10022C0E90022C0E9022269
:10417000027442743C60002C38D02149102001F0B8
:10418000F6FA0546A0B196E8030002AB83E8030007
:1041900095E8030086E8030093E803000022B36873
:1041A000AB6085E80300F368B260EA68F260EB6038
:1041B0002668256036B13046FFF7AEFF1021304645
:1041C00001F0D3FA3868036883B10C9B4A46CDE905
:1041D000000341460B4B043000F0A2FB30B93B68B2
:1041E0001B7C4BB9012000F083FBF8E73868002303
:1041F0003B6008B1FFF799FF384605B0BDE8F08392
:1042000050630D00CD400D0010B5036804469BB10E
:10421000586800F08DFB78B923685A7C12B9586849
:1042200000F08EFB2368586800F092FB20680023A2
:10423000236008B1FFF779FF206808B1FFF775FF29
:10424000204610BDF7B5089F00200D4606460446DF
:10425000B84205DA115C0C44195C01300E44F7E7F2
:10426000B4420CBF012700270AD100F0D1FF084952
:10427000009423462A46FFF741FF384603B0F0BDBD
:1042800000F0C6FF0349009433462A46F3E700BF17
:104290001C600D0051600D00F0B58BB004468DF828
:1042A0000F1000F0B5FF9DF80F206B49FFF726FFB8
:1042B000636994F82A105A1C6261052955D8DFE811
:1042C00001F0031832738FBA644A1068516812897A
:1042D00005AB03C31A8063784BB1012300930DF142
:1042E0000F0204F1190305A92046FFF7ABFF0123D4
:1042F00016E09DF80F3084F82230594B18689B88DF
:10430000ADF81830637805904BB1012300930DF19F
:104310000F0204F11A0305A92046FFF793FF0223B9
:1043200084F82A3021E0032A667820DC4D4B05AA68
:1043300003F1100718685968154603C50833BB42D6
:104340002A46F7D119889B782980AB704EB101239A
:1043500000930DF10F0204F11B0305A92046FFF79E
:1043600071FF9DF80F3084F823300BB0F0BD3E4B49
:1043700005AD03F11007186859682A4603C20833CF
:10438000BB421546F7D14EB1012300930DF10F0248
:1043900004F11C0305A92046FFF754FF9DF80F30D8
:1043A00084F824300323BBE723449DF80F1083F8DF
:1043B000211094F82450EB1C9A42D6DC2B4A10684A
:1043C000516805AB03C3637843B1009504F11D0345
:1043D00004F1250205A92046FFF734FF04239FE7D7
:1043E00094F824109DF80F30081D824202DC84F8F6
:1043F0002630BAE784F8273098B204F11D064FF64C
:10440000FF750139C9B2FF290ED016F8013B83EAC6
:10441000152383EA1312134642EA052282EA033285
:1044200082EA43139DB2ECE7A84204BF012384F85B
:104430002830052374E70E4B059363784BB10123B5
:1044400000930DF10F0204F11A0305A92046FFF7AE
:10445000F9FE002363614AE785600D0096600D0058
:10446000A0600D00A6600D00B9600D00C9600D00D0
:10447000456E640010B5036901330361037E044691
:1044800041EA4301017600F0C3FE22690549FFF7C6
:1044900035FE23695B0703D1217E2046FFF7FCFE32
:1044A00010BD00BFD1600D0038B538220446002190
:1044B00001F076FD124AA26140F20112A283552258
:1044C00084F821207E2284F822200E4A07CA4FF465
:1044D000807323800023012584F8203084F8233062
:1044E000238584F82A3004F12C0384F8245084F8BE
:1044F000255083E8070084F83C50204638BD00BFB3
:1045000000557E00D4610D002DE9F043374D384C45
:1045100095B000F07DFE4FF4165100F069FE28883A
:10452000052101F0B3F82088022101F0AFF8002640
:104530002888002101F0BBF800962E4920882E4CD7
:104540004FF0FF33324600F08FFE2C4B40223146B5
:1045500004A81E7004AD01F023FD04A8FFF7A4FF1A
:104560000FCD0FC40FCD0FC40FCD0FC495E80F00B2
:1045700007C43046237000F0CBF947F22F540746AA
:104580000025002000F0C4F9B0EB070861EB060934
:104590004D4508BF444507D300F03AFE00F02CFE1D
:1045A00010B900F051FBECE700F032FE00F024FE01
:1045B00000F02EFE124900F048FC124B0493124BFF
:1045C0000793124B06934FF440631149009304AADA
:1045D000022303A8FFF7BAFD04A8FFF79DFD03A877
:1045E000FFF712FE15B0BDE8F08300BF88E5032099
:1045F00080E5032061460D0004E60320F9E5032071
:10460000E8600D00E5470D00B3400D00B7400D0018
:1046100003610D0070470000012810B5044604D066
:1046200003280CD0094B1C7010BD00F0F1FD0849A7
:1046300000F00BFC00210748FFF71CFFF2E700F039
:10464000E7FD054900F001FC0121F4E7F9E503204D
:1046500010610D0004E6032018610D000000000049
:104660002DE97043404E00F04BF93368C51A00F055
:1046700047F93E4B3060186801F0D2F934A3D3E912
:1046800000238046894601F035FA01F045FC854259
:104690004FF000043ADB30A3D3E9002340464946FB
:1046A00001F028FA01F038FC854206461BDC2CA3F9
:1046B000D3E900234046494601F01CFA01F02CFCE6
:1046C000854202DBB542B8BF0124294A137883F042
:1046D00001031370274B1A78042A17D8DFE802F079
:1046E00005131C252E000224EFE7E30704D4012064
:1046F000BDE87043FFF790BF00F08AFD1E49BDE89A
:10470000704300F0A2BB1CB902221A70BDE870838E
:10471000012CFBD10320EBE7002CE8D000F078FD62
:1047200016492246FFF7EAFCE1E70CB90422ECE760
:10473000012CDCD000F06CFD1149E0E7002CE9D041
:1047400000F066FD0D492246FFF7D8FCE2E700BF06
:104750009A9999999999E93F9A99999999990140C2
:10476000CDCCCCCCCCCCFC3FFCE503207CE50320BD
:10477000FAE50320F9E5032020610D0044610D00F6
:1047800076610D0008B5064B0146188800F08FFFD2
:10479000044B05481968BDE8084000F0E1B800BFC7
:1047A00088E5032084E5032000E60320F8B50C4FDC
:1047B00005460E460024B44210DA2A5D3B789A4240
:1047C00007D10120FFF7DEFF0020FFF7DBFF0134F8
:1047D000F1E70020FFF7D6FF0120F6E7F8BD00BFA4
:1047E00078E5032007B500F013FD1549154E164D69
:1047F000164C00F02AFB2B7832788DF80020082127
:1048000068468DF801308DF802308DF803308DF850
:1048100004208DF805308DF806208DF80730FFF75D
:10482000C5FF00F0F5FC214600F00FFB08484FF4EF
:10483000FA6100F095F8074B00221A70DBE700BF21
:10484000B5610D00F8E5032078E50320CA610D008D
:1048500000E60320F9E5032008B50021012000F05F
:1048600077F90248FFF720FE08BD00BF04E60320E9
:1048700008B5024B1B689B68019308BD68020300E2
:1048800008B5024B1B68DB68019308BD6802030092
:1048900008B5024B1B689B68019308BD2C020300FE
:1048A00008B5024B1B68DB68019308BD2C020300AE
:1048B00008B5024B1B681B69019308BD2C0203005D
:1048C00008B5024B1B689B69019308BD2C020300CD
:1048D00008B5024B1B68DB69019308BD2C0203007D
:1048E00008B5024B1B685B68019308BD1802030002
:1048F00008B5024B1B689B68019308BD18020300B2
:1049000008B5024B1B685B69019308BD18020300E0
:1049100008B5024B1B68DB6D019308BD180203004C
:1049200008B5024B1B685B68019308BD4802030091
:1049300008B5024B1B689B68019308BD4802030041
:1049400008B5024B1B681B69019308BD48020300B0
:1049500008B5024B1B685B69019308BD4802030060
:1049600008B5024B1B689B69019308BD4802030010
:1049700008B5024B1B685B6C019308BD480203003D
:1049800008B5024B1B689B6C019308BD48020300ED
:1049900008B5024B1B68DB6E019308BD480203009B
:1049A00008B5024B1B685B69019308BD64020300F4
:1049B00008B5024B1B681B68019308BD3C0203004D
:1049C00008B5024B1B68DB68019308BD3C0203007D
:1049D00008B5024B1B681B69019308BD3C0203002C
:1049E00008B5024B1B685B69019308BD3C020300DC
:1049F00008B5024B1B689B69019308BD3C0203008C
:104A000008B5024B1B68DB69019308BD3C0203003B
:104A100008B5024B1B681B6A019308BD3C020300EA
:104A200008B5024B1B689B6A019308BD3C0203005A
:104A300008B5024B1B681B6A019308BD28020300DE
:104A400008B5024B1B685B6A019308BD280203008E
:104A500008B5024B1B689B6A019308BD280203003E
:104A600008B5024B1B68DB6A019308BD28020300EE
:104A700008B5024B1B681B6B019308BD280203009D
:104A800008B5024B1B685B6B019308BD280203004D
:104A900008B5024B1B681B6C019308BD280203007C
:104AA00008B5024B1B68DB69019308BD30020300A7
:104AB00008B5024B1B681B6A019308BD3002030056
:104AC00008B5024B1B681B68019308BD4C0203002C
:104AD00008B5024B1B685B68019308BD4C020300DC
:104AE00008B5024B1B681B69019308BD4C0203000B
:104AF00008B5024B1B685B69019308BD4C020300BB
:104B000008B5024B1B689B69019308BD4C0203006A
:104B100008B5024B1B68DB69019308BD4C0203001A
:104B200008B5024B1B681B6A019308BD4C020300C9
:104B300008B5024B1B689B6A019308BD4C02030039
:104B400008B5024B1B685B68019308BD2002030097
:104B500008B5024B1B68DB6A019308BD2002030005
:104B600008B5034B1B68D3F88830019308BD0000DB
:104B70002002030008B5034B1B68D3F8943001935F
:104B800008BD00002002030008B5024B1B685B68EB
:104B9000019308BD4002030008B5024B1B689B68E7
:104BA000019308BD4002030008B5024B1B68DB6897
:104BB000019308BD4002030008B5024B1B681B6946
:104BC000019308BD4002030008B5024B1B685B69F6
:104BD000019308BD4002030008B5024B1B689B69A6
:104BE000019308BD4002030008B5024B1B68DB6956
:104BF000019308BD4002030008B5024B1B681B6A05
:104C0000019308BD4002030008B5024B1B681B6BF3
:104C1000019308BD4002030008B5024B1B685B6BA3
:104C2000019308BD4002030008B5024B1B681B6CD2
:104C3000019308BD4002030008B5024B1B685B6C82
:104C4000019308BD4002030008B5024B1B689B6836
:104C5000019308BD4402030008B5024B1B68DB6BDF
:104C6000019308BD4402030008B5024B1B681B6892
:104C7000019308BD1C02030008B5024B1B685B686A
:104C8000019308BD1C02030008B5024B1B685B6A58
:104C9000019308BD1C02030008B5024B1B68DB6AC8
:104CA000019308BD1C02030008B5024B1B685B6C36
:104CB000019308BD1C020300002240681146FFF763
:104CC0009BBF002240681146FFF7A6BF4068002244
:104CD000FFF79ABF4068002281F00101FFF784BF0F
:104CE000002340681A461946FFF776BF0023406844
:104CF0001A461946FFF768BF002240681146FFF7C1
:104D00005BBF002240681146FFF746BF40680022A3
:104D10000221FFF749BF002340681A46FFF734BF5E
:104D2000024B03225A60024A1A60704744E603208D
:104D3000E8610D0010B5044608462170FFF7B0FE8B
:104D400000236360204610BD10B50446006818B10A
:104D5000FFF792FF0023236010BD10B50446FFF754
:104D6000F3FF204610BD000010B5094B094C02228C
:104D700000201A60084B2060A080A071A360FFF79C
:104D8000DFFE2046054A0649BDE8104000F0E8BCB9
:104D900058E603204CE603200000FFFFF4E5032063
:104DA0005B4D0D0010B50446006808B1FFF7E8FD43
:104DB000204610BD10B5064C002320462360FFF7A7
:104DC000D7FD2046034A0449BDE8104000F0C8BCA6
:104DD0005CE60320F4E50320A54D0D00F8B506467A
:104DE0000D468F180024BD420CD0336815F8011B06
:104DF0009B6830469847031E01DB1C44F3E7002CF8
:104E000008BF1C462046F8BD13B50446084659B1F4
:104E1000019101F0F1F823680199DB680246204610
:104E200002B0BDE81040184702B010BD03689B688F
:104E3000184738B50D210546FFF7F8FF0A2104464B
:104E40002846FFF7F3FF204438BD38B50546FFF785
:104E5000DBFF04462846FFF7ECFF204438BD30B5A1
:104E60008BB000238DF82430012A98BF0A2209ACA8
:104E70000D46B1FBF2F101FB125303F0FF03092BC6
:104E800094BF30333733DBB2AA4204F8013DEFD987
:104E90002146FFF7B9FF0BB030BD2DE9F04186B0D8
:104EA00000AF05460E46381D142114463B60FFF73F
:104EB000EBFE13280ED8391D2846FFF7A5FF044640
:104EC0001EB12846FFF7B5FF044420461837BD46FB
:104ED000BDE8F08100F1080323F00703E846ADEBDD
:104EE000030D2246411C3B686846FFF7CDFE69462C
:104EF0002846FFF789FF0446C546E1E7014B024A11
:104F00001A60704760E603201C620D00024B1A68AD
:104F1000024B1A60704700BF8CE5032064E6032053
:104F200010B50446FFF7F8F8204610BD0348044AC0
:104F300004490023836000F013BC00BF68E603202F
:104F4000F4E50320214F0D00014B1860704700BFAE
:104F500090E5032008B50B4B43B100F059F9036805
:104F60001B699847002801DDAFF30080064B43B171
:104F700000F0F8F903681B699847002801DDAFF3DA
:104F8000008008BD000000000000000008B5FFF729
:104F9000E1FFFFF7B5FC014B186008BDD4E7032023
:104FA0000248034A0349121A00F0ECBF00F4032040
:104FB00004F4032080630D0007B5002300931A4614
:104FC0006FF07701FFF7D6FD03B05DF804FB00003A
:104FD00007B543880A2B08D0502B0BD1094B1B680F
:104FE0004BB103B05DF804EB1847FFF7E5FF03B0E2
:104FF0005DF804FB002300931A466FF07701FFF77A
:10500000B9FDF4E77CE6032038B5124C1248134D85
:105010000021FFF749FE2368AB42114B0CBF012270
:1050200000221A7002D0FFF7BBFF2560FFF758FC83
:10503000044600F0BDFF0B4B13B12046AFF30080D8
:1050400000210848FFF708FEBDE838400648002167
:10505000FFF786BD00F40320494F0D001E1C279A60
:1050600078E6032000000000D14F0D00704710B516
:105070001821044600F079FB204610BDF0B5037DF1
:10508000062B8DB00E4600F104074FF0000412D03D
:1050900000F1080515F8011D0A223046FFF7DFFE72
:1050A000AF42044419D0002CF4D02E213046FFF733
:1050B000BDFE0444EEE72F236A4639460A208DF8E8
:1050C0000040FFF76DFC684600F096FF336802462B
:1050D000DB68694630469847044620460DB0F0BD6F
:1050E00010B5054B0446112240F8043B002100F0A6
:1050F00057FF204610BD00BF44620D000346074A1B
:1051000010B543F8042B01F1100251F8044B43F899
:10511000044B9142F9D10A781A7010BD44620D0017
:1051200010B59DF8084044EA032343EA024242EAEC
:10513000016104234160037510BD13B5CB78009362
:105140008B784A780978FFF7EBFF02B010BD417405
:105150007047704708B50021007CFFF7D1FC40EA9A
:10516000E07008BD08B50121007CFFF7C9FC40EAEA
:10517000E07008BD08B5007CFFF7BAFC20EAE070DB
:1051800008BD08B5007CFFF7ABFC20EAE07008BD65
:1051900013B50446007C0191FFF7AAFC0028019991
:1051A00001DC607C20B1207CFFF7B2FC20EAE070DB
:1051B00002B010BD007CFFF7B3BC10B5142104464B
:1051C00000F0D3FA204610BD10B54FF47A730446B0
:1051D00008460021C4E90113044B23600123207415
:1051E00063741146FFF76CFC204610BD58620D0039
:1051F000007C0022FFF76CBC007CFFF799BC10B567
:1052000014220446002100F0CBFE204610BD000011
:1052100010B5104C88B003A8FFF7F1FF2178BFF359
:105220005B8F11F0010111D120460191FEF739FF8A
:10523000019958B103AA0848FFF7C6FF2046FEF7B8
:1052400035FF064A0649044800F08AFA024808B0C9
:1052500010BD00BF80E6032084E60320F4E50320B0
:1052600053510D00004700002DE9FF4100241D4669
:105270000F4690460646FFF72BFBA5424FF004036E
:10528000ADF80D408DF80C308DF80F40A2BF9DF8A1
:1052900028308DF80E3003AC0749009443463A4657
:1052A0003046A8BF8DF80D50FFF70AFBB0FA80F02A
:1052B000400904B0BDE8F08165520D0070474174AB
:1052C000704708B5007CFFF7ABFB20EAE07008BD33
:1052D00008B5007CFFF77CFB20EAE07008BD08B54C
:1052E000007CFFF785FB40EAE07008BD08B5007C54
:1052F000FFF776FB40EAE07008BD007CFFF780BB5B
:1053000037B5457C04462DB1207C03B0BDE8304064
:10531000FFF756BB007C0191FFF782FB0028019943
:10532000F2DC284603B030BD10B51421044600F06D
:105330001CFA204610BD000010B54FF0000C0446CA
:10534000084611464FF47A72C4E901C2044A226049
:105350000122207462741A46FFF72AFB204610BD12
:1053600088620D0013B50E4C2178BFF35B8F11F0EE
:10537000010112D120460191FEF793FE019960B11F
:10538000084A094B0948FFF7D7FF2046FEF78EFE73
:10539000074A0849054800F0E3F9044802B010BD87
:1053A00098E603209CE6032020E70320A4E70320DF
:1053B000F4E50320BD520D007047F8B506461546CA
:1053C0000C468F18BC4206D0336814F8011B9B684A
:1053D00030469847F6E72846F8BD007C0022FFF7E4
:1053E00027BB007C0021FFF72BBB007C0021FFF7CF
:1053F0002FBB007C0021FFF733BB007C0021FFF7AF
:1054000037BB10B51421044600F0AFF9204610BD9B
:1054100010B54FF47A73044608460021C4E901131D
:10542000034B236020741146FFF732FB204610BD6A
:10543000B8620D00002240681146FFF7BDBB002294
:1054400040681146FFF7D8BB002240681146FFF7BD
:10545000E3BB40680022FFF7D7BB4068002281F021
:105460000101FFF7C1BB002340681A461946FFF748
:10547000B3BB002340681A461946FFF7A5BB0022BC
:1054800040681146FFF788BB406800220221FFF701
:105490008BBB002340681A46FFF776BB024B042201
:1054A0005A60024A1A607047B8E70320E0620D00B4
:1054B000002340681A46FFF767BB406800220221BC
:1054C000FFF772BB002240681146FFF765BB002260
:1054D00040681146FFF770BB002340681A46194622
:1054E000FFF772BB002340681A461946FFF774BBEA
:1054F00040680021FFF798BB40680021FFF79CBB84
:105500004068002281F00101FFF76EBB4068002275
:10551000FFF77ABB002240681146FFF77DBB0022EF
:1055200040681146FFF768BB2DE9F043002495B0B1
:1055300016460D460746FFF7D3FD214618220EA852
:10554000009400F02DFD4023CDE90C3421466B463C
:105550000CAA3046FFF794F90446002846D10246CB
:1055600001216868FFF728FB02218046224668680F
:10557000FFF722FB009E81462146002E36D00029EF
:1055800034D17368022B03D00A2B0BD0F669F4E7F1
:10559000B8F1000F04D0716938460431FFF7CDFD32
:1055A0004146F3E7B9F1000F01D14946EEE77469CE
:1055B000102201A800F0F4FC06238DF8143001AD90
:1055C00004F108031834186859682A4603C20833DE
:1055D000A3421546F7D101A906A807ADFFF78EFD36
:1055E0000FCD3C1D0FC42B682370DEE70098FFF73A
:1055F0003FF9384615B0BDE8F0830000024B034A7E
:105600001A6000225A607047C0E703201C630D0037
:10561000232813B502D9002002B010BDA0F10B035E
:10562000022B1AD8174C2178BFF35B8F11F00101C0
:105630000BD120460191FEF734FD019928B11248A3
:10564000FFF778FB2046FEF731FD0F4B1878FFF788
:105650002FFA0028DFD10120DEE7012809D800F069
:1056600057F80021007CFFF70BFA80F00100C0B270
:10567000D2E709380128EED8FFF774FE007CFFF767
:10568000C7F9F2E7C8E70320CCE70320232838B5A1
:1056900004460D460AD8FF2908D0FFF7B9FF28B104
:1056A00029462046BDE83840FFF7F2B838BD38B586
:1056B00004460D46FFF7F4F8FF2810D0062804D85A
:1056C0004D2323FA00F0C30709D42046FFF7A0FFBB
:1056D00028B129462046BDE83840FFF7E9B838BD73
:1056E00038B50023202543801423044603808560B9
:1056F00005610649284600F03CF8044960602846E8
:1057000000F037F8E060204638BD00BF50630D0060
:1057100030B50F4D2978BFF35B8F11F0010487B0CE
:1057200013D12846FEF7BDFC78B101A8FFF7D8FFDA
:1057300001AA21460748FFF76BFE2846FEF7B6FC94
:10574000054A0649034800F00BF8024807B030BD8F
:10575000D8E70320DCE70320F4E50320B9530D006C
:105760000B460146184600F0FFBBFEF798BCFEF75B
:1057700092BCFEF792BC08B5FFF78EFA81F00041AB
:1057800002E000BF83F0004330B54FEA41044FEA26
:10579000430594EA050F08BF90EA020F1FBF54EAC1
:1057A000000C55EA020C7FEA645C7FEA655C00F05D
:1057B000E2804FEA5454D4EB5555B8BF6D420CDD2E
:1057C0002C4480EA020281EA030382EA000083EAB1
:1057D000010180EA020281EA0303362D88BF30BD51
:1057E00011F0004F4FEA01314FF4801C4CEA1131A7
:1057F00002D0404261EB410113F0004F4FEA033306
:105800004CEA133302D0524263EB430394EA050F90
:1058100000F0A780A4F10104D5F1200E0DDB02FAFF
:105820000EFC22FA05F2801841F1000103FA0EF293
:10583000801843FA05F359410EE0A5F120050EF159
:10584000200E012A03FA0EFC28BF4CF0020C43FA8A
:1058500005F3C01851EBE37101F0004507D54FF097
:10586000000EDCF1000C7EEB00006EEB0101B1F5E7
:10587000801F1BD3B1F5001F0CD349085FEA30002D
:105880004FEA3C0C04F101044FEA445212F5800F38
:1058900080F09A80BCF1004F08BF5FEA500C50F1D5
:1058A000000041EB045141EA050130BD5FEA4C0CB8
:1058B000404141EB0101013C28BFB1F5801FE9D215
:1058C00091F0000F04BF01460020B1FA81F308BF38
:1058D0002033A3F10B03B3F120020CDA0C3208DD04
:1058E00002F1140CC2F10C0201FA0CF021FA02F1DF
:1058F0000CE002F11402D8BFC2F1200C01FA02F14F
:1059000020FA0CFCDCBF41EA0C019040E41AA2BF73
:1059100001EB0451294330BD6FEA04041F3C1CDA3B
:105920000C340EDC04F11404C4F1200220FA04F05B
:1059300001FA02F340EA030021FA04F345EA030105
:1059400030BDC4F10C04C4F1200220FA02F001FAC7
:1059500004F340EA0300294630BD21FA04F0294649
:1059600030BD94F0000F83F4801306BF81F48011E2
:105970000134013D4EE77FEA645C18BF7FEA655C55
:1059800029D094EA050F08BF90EA020F05D054EA27
:10599000000C04BF1946104630BD91EA030F1EBF2C
:1059A0000021002030BD5FEA545C05D14000494130
:1059B00028BF41F0004130BD14F580043CBF01F523
:1059C000801130BD01F0004545F0FE4141F4700109
:1059D0004FF0000030BD7FEA645C1ABF19461046E4
:1059E0007FEA655C1CBF0B46024650EA013406BFE5
:1059F00052EA033591EA030F41F4002130BD00BFA4
:105A000090F0000F04BF0021704730B54FF4806460
:105A100004F132044FF000054FF0000150E700BFE1
:105A200090F0000F04BF0021704730B54FF4806440
:105A300004F1320410F0004548BF40424FF000012D
:105A40003EE700BF42004FEAE2014FEA31014FEA70
:105A500002701FBF12F07F4393F07F4F81F06051BF
:105A6000704732F07F4208BF704793F07F4F04BF0A
:105A700041F40021704730B54FF4607401F00045E7
:105A800021F000411CE700BF50EA010208BF704747
:105A900030B54FF000050AE050EA010208BF704738
:105AA00030B511F0004502D5404261EB41014FF4A1
:105AB000806404F132045FEA915C3FF4D8AE4FF0A9
:105AC00003025FEADC0C18BF03325FEADC0C18BF8C
:105AD000033202EBDC02C2F1200300FA03FC20FADD
:105AE00002F001FA03FE40EA0E0021FA02F114442A
:105AF000BDE600BF70B54FF0FF0C4CF4E06C1CEA43
:105B000011541DBF1CEA135594EA0C0F95EA0C0FB3
:105B100000F0DEF82C4481EA030621EA4C5123EA26
:105B20004C5350EA013518BF52EA033541F4801155
:105B300043F4801338D0A0FB02CE4FF00005E1FB08
:105B400002E506F00042E0FB03E54FF00006E1FB52
:105B500003569CF0000F18BF4EF0010EA4F1FF0495
:105B6000B6F5007F64F5407404D25FEA4E0E6D41D5
:105B700046EB060642EAC62141EA55514FEAC520E6
:105B800040EA5E504FEACE2EB4F1FD0C88BFBCF562
:105B9000E06F1ED8BEF1004F08BF5FEA500E50F113
:105BA000000041EB045170BD06F0004646EA0101D9
:105BB00040EA020081EA0301B4EB5C04C2BFD4EB0B
:105BC0000C0541EA045170BD41F480114FF0000E04
:105BD000013C00F3AB8014F1360FDEBF002001F072
:105BE000004170BDC4F10004203C35DA0C341BDCEC
:105BF00004F11404C4F1200500FA05F320FA04F0BE
:105C000001FA05F240EA020001F0004221F00041F1
:105C100010EBD37021FA04F642EB06015EEA430E64
:105C200008BF20EAD37070BDC4F10C04C4F1200594
:105C300000FA04F320FA05F001FA04F240EA020047
:105C400001F0004110EBD37041F100015EEA430E18
:105C500008BF20EAD37070BDC4F1200500FA05F238
:105C60004EEA020E20FA04F301FA05F243EA0203B7
:105C700021FA04F001F0004121FA04F220EA0200C6
:105C800000EBD3705EEA430E08BF20EAD37070BD0C
:105C900094F0000F0FD101F00046400041EB0101EC
:105CA00011F4801F08BF013CF7D041EA060195F0CE
:105CB000000F18BF704703F00046520043EB030388
:105CC00013F4801F08BF013DF7D043EA0603704775
:105CD00094EA0C0F0CEA135518BF95EA0C0F0CD080
:105CE00050EA410618BF52EA4306D1D181EA0301C6
:105CF00001F000414FF0000070BD50EA410606BFC0
:105D00001046194652EA430619D094EA0C0F02D104
:105D100050EA013613D195EA0C0F05D152EA033649
:105D20001CBF104619460AD181EA030101F0004167
:105D300041F0FE4141F470014FF0000070BD41F0B0
:105D4000FE4141F4780170BD70B54FF0FF0C4CF48A
:105D5000E06C1CEA11541DBF1CEA135594EA0C0FA9
:105D600095EA0C0F00F0A7F8A4EB050481EA030EF6
:105D700052EA03354FEA013100F088804FEA0333DD
:105D80004FF0805545EA131343EA12634FEA0222AB
:105D900045EA111545EA10654FEA00260EF000416C
:105DA0009D4208BF964244F1FD0404F5407402D2BE
:105DB0005B084FEA3202B61A65EB03055B084FEA4F
:105DC00032024FF480104FF4002CB6EB020E75EB4C
:105DD000030E22BFB61A754640EA0C005B084FEA74
:105DE0003202B6EB020E75EB030E22BFB61A7546F1
:105DF00040EA5C005B084FEA3202B6EB020E75EB3C
:105E0000030E22BFB61A754640EA9C005B084FEAB3
:105E10003202B6EB020E75EB030E22BFB61A7546C0
:105E200040EADC0055EA060E18D04FEA051545EAAF
:105E300016754FEA06164FEAC30343EA52734FEA58
:105E4000C2025FEA1C1CC0D111F4801F0BD141EAD1
:105E500000014FF000004FF0004CB6E711F4801F36
:105E600004BF01430020B4F1FD0C88BFBCF5E06F16
:105E70003FF6AFAEB5EB030C04BFB6EB020C5FEA26
:105E8000500C50F1000041EB045170BD0EF0004E7B
:105E90004EEA113114EB5C04C2BFD4EB0C0541EAAD
:105EA000045170BD41F480114FF0000E013C90E6AA
:105EB00045EA060E8DE60CEA135594EA0C0F08BF6E
:105EC00095EA0C0F3FF43BAF94EA0C0F0AD150EA6D
:105ED00001347FF434AF95EA0C0F7FF425AF104600
:105EE00019462CE795EA0C0F06D152EA03353FF428
:105EF000FDAE1046194622E750EA410618BF52EAA5
:105F000043067FF4C5AE50EA41047FF40DAF52EA78
:105F100043057FF4EBAE12E74FEA410212F500129F
:105F200015D211D56FF47873B3EB625212D94FEAE0
:105F3000C12343F0004343EA505311F0004F23FACA
:105F400002F018BF404270474FF00000704750EA1F
:105F5000013005D111F0004008BF6FF000407047DC
:105F60004FF00000704700BF10B5054C13462CB130
:105F70000A4601460220AFF3008010BD2046FCE730
:105F8000000000000A44914200F1FF3300D1704745
:105F900010B511F8014B03F8014F9142F9D110BD32
:105FA00002440346934200D1704703F8011BF9E70E
:105FB00038B50D4B1D68AB6B04467BB91820FEF756
:105FC00053FE0A4A0A4BA863C0E90023094B8360C9
:105FD0000B23838101220023C0E90423AB6B002241
:105FE0001C615A6138BD00BF90E503200E33CDAB74
:105FF00034126DE6ECDE0500034613F8012B002A8F
:10600000FBD1181A0138704721400D005D400D008A
:1060100085400D0089400D000000000053554343AA
:1060200045533A20526563656976656420666F72F0
:106030002025733A200920457870656374656420D3
:1060400025642C2052656365697665642025642E7D
:10605000004552524F523A20526563656976656435
:1060600020666F722025733A200920457870656399
:106070007465642025642C205265636569766564C7
:106080002025642E00526563656976656420627917
:10609000746520256400507265616D62756C6500E1
:1060A000537461727400456E746574652028747948
:1060B0007065466C6167732900456E746574652070
:1060C000286C656E67746829004D65737361676538
:1060D00000526563656976656420626974206E7537
:1060E0006D6265722025640053657269616C20637E
:1060F0006F6E6E65637465643A207374617274695F
:106100006E67006F757470757454687265616400B1
:10611000524541443A203000524541443A20310032
:106120004552524F523A20696E697469616C20730E
:106130007461746520676F74206C6F6E6750657250
:10614000696F64004552524F523A2065787065631A
:106150007465642073686F7274506572696F64202F
:10616000696E207761697420737461746520676F4C
:10617000742023256400554E444546494E4544202D
:106180006265686176696F757220666F72207665E8
:1061900072794C6F6E67506572696F6420696E200A
:1061A000696E707574537461746520276F757470AF
:1061B00075743127005374617274696E67206F754E
:1061C00074707574206C6F6F70002D2D2D2D2D2D1A
:1061D0002D2D2D00010000000A00000064000000C9
:1061E0000000000000000000174D0D000D4D0D00D7
:1061F000034D0D00F94C0D00ED4C0D00E14C0D0070
:10620000F1540D00F9540D00D54C0D00CD4C0D008E
:10621000C34C0D00B94C0D0029550D006170700084
:1062200025592D256D2D25645425483A254D3A25AF
:1062300053257A0061736374696D65000000000086
:10624000000000007D500D006D500D006F500D00DE
:10625000000000000000000053510D00BB510D0074
:1062600091510D00DD4D0D0083510D0055510D0074
:1062700065510D00B5510D0075510D004F510D00C8
:106280000000000000000000BD520D0029530D0069
:1062900001530D00DD4D0D00D1520D00ED520D00EA
:1062A000DF520D00FB520D00BF520D00C3520D0016
:1062B0000000000000000000B9530D0003540D0061
:1062C000DB530D00BB530D00E3530D00EB530D00EA
:1062D000F3530D00FB530D00000000000000000010
:1062E00093540D0089540D007F540D0035540D005A
:1062F00073540D0067540D00F1540D00F9540D0056
:106300005B540D0053540D0049540D003F540D00D3
:1063100029550D000000000000000000B1540D00E0
:10632000BB540D00C5540D00CF540D00D9540D00C1
:10633000E5540D00F1540D00F9540D0001550D0008
:106340000D550D0015550D001F550D0029550D005B
:106350000000000059480D00214D0D00694D0D0051
:10636000B54D0D00FD4E0D000D4F0D002D4F0D00D4
:106370009D540D00FD550D000000000000000000C0
:046380000000000019
:1063840001000000F401000007000000F401000017
:106394000600000034620D0094E5032000000000B4
:1063A40000000000000000000000000000000000E9
:1063B40000000000000000000000000000000000D9
:1063C40000000000000000000000000000000000C9
:1063D40000000000000000000000000000000000B9
:1063E40000000000000000000000000000000000A9
:0C63F4000000000000000000000000009D
:10640000FFFFFFFF00000102030405060708090A59
:106410000B0C0D0E0F101112131415161718191A54
:086420001B1C1D1E1F2028009B
:04642800785634125C
:04000003D0004020C9
:00000001FF
