:02000002D0002C
:1040000000400D00644F0D00000006000C0005018B
:08401000040135080000000066
:04401800184D0D0032
:10401C0009480A49884208B505D0094A824202D0AB
:10402C00121A00F031FE0748074A0021121A00F05C
:10403C0039FE014808BD00BFE4E50320D44E0D0055
:10404C004CE603204CE60320F0E7032070B5074E46
:10405C00074C00F069FBA41BA4080025A54200D165
:10406C0070BD56F8043B98470135F7E7A04E0D009C
:10407C00C84E0D0000F012B808B500F04DF8BDE8C0
:10408C00084000F013BB00F0CDB90078B0FA80F016
:10409C004009704701230370704700002DE9F84375
:1040AC0000F046FC4FF4165100F032FC00F040FCDE
:1040BC00174900F086FA00F03BFC154900F081FA34
:1040CC00002000F073F84FF00009804647F22F569D
:1040DC000027002000F06AF8B0EB080461EB09053A
:1040EC00AF4208BFA64207D300F022FC00F014FC3C
:1040FC0010B900F07FF9ECE700F01AFC00F00CFCB2
:10410C0000F016FCBDE8F843024900F05ABA00BFB3
:10411C002C4D0D003C4D0D0008B541F2883000F0DF
:10412C008BFABDE8084043F6982000F085BA0000F1
:10413C00044B0549196000229A72044B19609A725B
:10414C00704700BF5CE60320557E000150E603205B
:10415C0010B58368044613B10322014698472046E4
:10416C0010BD0021012000F0C9B8000008B5024BB9
:10417C001B689B68019308BD6802030008B5024BDD
:10418C001B68DB68019308BD6802030008B5024B8D
:10419C001B685B68019308BD1802030008B5024B4D
:1041AC001B685B69019308BD1802030008B5024B3C
:1041BC001B68DB6D019308BD1802030008B5024BA8
:1041CC001B685B6C019308BD4802030008B5024BE9
:1041DC001B689B6C019308BD4802030008B5024B99
:1041EC001B685B69019308BD6402030008B5024BB0
:1041FC001B681B68019308BD3C02030008B5024B09
:10420C001B68DB68019308BD3C02030008B5024B38
:10421C001B681B69019308BD3C02030008B5024BE7
:10422C001B685B69019308BD3C02030008B5024B97
:10423C001B689B69019308BD3C02030008B5024B47
:10424C001B68DB69019308BD3C02030008B5024BF7
:10425C001B689B6A019308BD3C02030008B5024B26
:10426C001B681B68019308BD4C02030008B5024B88
:10427C001B685B68019308BD4C02030008B5024B38
:10428C001B681B69019308BD4C02030008B5024B67
:10429C001B685B69019308BD4C02030008B5024B17
:1042AC001B689B69019308BD4C02030008B5024BC7
:1042BC001B68DB69019308BD4C02030008B5024B77
:1042CC001B681B6A019308BD4C02030008B5024B26
:1042DC001B689B6A019308BD4C02030008B5024B96
:1042EC001B685B68019308BD2002030008B5024BF4
:1042FC001B685B69019308BD2002030008B5024BE3
:10430C001B68DB6A019308BD2002030008B5034B50
:10431C001B68D3F88830019308BD0000200203000D
:10432C0008B5034B1B68D3F89430019308BD00000B
:10433C002002030008B5024B1B685B68019308BDA3
:10434C004002030008B5024B1B689B68019308BD33
:10435C004002030008B5024B1B68DB68019308BDE3
:10436C004002030008B5024B1B681B69019308BD92
:10437C004002030008B5024B1B685B69019308BD42
:10438C004002030008B5024B1B689B69019308BDF2
:10439C004002030008B5024B1B68DB69019308BDA2
:1043AC004002030008B5024B1B681B6A019308BD51
:1043BC004002030008B5024B1B681B6B019308BD40
:1043CC004002030008B5024B1B685B6B019308BDF0
:1043DC004002030008B5024B1B681B6C019308BD1F
:1043EC004002030008B5024B1B685B6C019308BDCF
:1043FC004002030008B5024B1B689B68019308BD83
:10440C004402030008B5024B1B68DB6B019308BD2B
:10441C004402030008B5024B1B681B68019308BDDE
:10442C001C02030008B5024B1B685B68019308BDB6
:10443C001C02030008B5024B1B685B6C019308BDA2
:10444C001C020300002240681146FFF7ABBF00229C
:10445C0040681146FFF7B6BF40680022FFF7AABFBD
:10446C004068002281F00101FFF794BF00234068EF
:10447C001A461946FFF786BF002340681A461946AC
:10448C00FFF778BF002240681146FFF76BBF002290
:10449C0040681146FFF756BF406800220221FFF723
:1044AC0059BF002340681A46FFF744BF024B032252
:1044BC005A60024A1A60704768E60320604D0D008E
:1044CC0010B50446006818B1FFF7ACFF0023236059
:1044DC0010BD10B50446FFF7F3FF204610BD0000D9
:1044EC0010B5094B094C022200201A60084B2060C1
:1044FC00A080A071A360FFF7F1FE2046054A064993
:10450C00BDE8104000F0AABB7CE6032070E6032057
:10451C000000FFFF4CE60320DF440D0010B50446FD
:10452C00006808B1FFF752FE204610BD10B5064CCE
:10453C00002320462360FFF741FE2046034A04492E
:10454C00BDE8104000F08ABB80E603204CE6032057
:10455C0029450D00F8B506460D468F180024BD42BE
:10456C000CD0336815F8011B9B6830469847031E26
:10457C0001DB1C44F3E7002C08BF1C462046F8BDA9
:10458C0013B50446084659B1019100F0B7FB2368F6
:10459C000199DB680246204602B0BDE8104018477E
:1045AC0002B010BD03689B68184738B50D2105464D
:1045BC00FFF7F8FF0A2104462846FFF7F3FF2044D3
:1045CC0038BD38B50546FFF7DBFF04462846FFF734
:1045DC00ECFF204438BD30B58BB000238DF824306F
:1045EC00012A98BF0A2209AC0D46B1FBF2F101FB7E
:1045FC00125303F0FF03092B94BF30333733DBB274
:10460C00AA4204F8013DEFD92146FFF7B9FF0BB0E0
:10461C0030BD0000014B024A1A60704784E603204B
:10462C00944D0D00024B1A68024B1A60704700BF84
:10463C00E4E5032088E603200021FFF757BE10B500
:10464C000446FFF785FD204610BD00000348044AD0
:10465C0004490023836000F001BB00BF8CE60320FB
:10466C004CE603204B460D00014B1860704700BF11
:10467C00E8E5032008B50B4B43B100F059F903688A
:10468C001B699847002801DDAFF30080064B43B14E
:10469C0000F0CCF903681B699847002801DDAFF3E3
:1046AC00008008BD000000000000000008B5FFF706
:1046BC00E1FFFFF773FD014B186008BDECE7032029
:1046CC000248034A0349121A00F0DEBA00F4032030
:1046DC0004F40320D04E0D0007B5002300931A46B6
:1046EC006FF07701FFF71CFE03B05DF804FB0000D0
:1046FC0007B543880A2B08D0502B0BD1094B1B68EC
:10470C004BB103B05DF804EB1847FFF7E5FF03B0BE
:10471C005DF804FB002300931A466FF07701FFF756
:10472C00FFFDF4E7A0E6032038B5124C1248134DF8
:10473C000021FFF77FFE2368AB42114B0CBF012217
:10474C0000221A7002D0FFF7BBFF2560FFF71EFD99
:10475C00044600F0AFFA0B4B13B12046AFF30080C8
:10476C0000210848FFF74EFEBDE8384006480021FE
:10477C00FFF7CCBD00F4032075460D001E1C279AD4
:10478C009CE6032000000000FD460D00704710B5AC
:10479C001821044600F067FA204610BDF0B5037DE1
:1047AC00062B8DB00E4600F104074FF0000412D01A
:1047BC0000F1080515F8011D0A223046FFF70BFF22
:1047CC00AF42044419D0002CF4D02E213046FFF710
:1047DC00E9FE0444EEE72F236A4639460A208DF899
:1047EC000040FFF7FBFC684600F088FA336802468D
:1047FC00DB68694630469847044620460DB0F0BD4C
:10480C0010B5054B0446112240F8043B002100F082
:10481C0049FA204610BD00BFBC4D0D000346074AA7
:10482C0010B543F8042B01F1100251F8044B43F876
:10483C00044B9142F9D10A781A7010BDBC4D0D0091
:10484C0010B59DF8084044EA032343EA024242EAC9
:10485C00016104234160037510BD13B5CB7800933F
:10486C008B784A780978FFF7EBFF02B010BD4174E2
:10487C007047704708B50021007CFFF70FFD40EA38
:10488C00E07008BD08B50121007CFFF707FD40EA88
:10489C00E07008BD08B5007CFFF7F8FC20EAE0707A
:1048AC0008BD08B5007CFFF7E9FC20EAE07008BD04
:1048BC0013B50446007C0191FFF7E8FC0028019930
:1048CC0001DC607C20B1207CFFF7F0FC20EAE0707A
:1048DC0002B010BD007CFFF7F1BC10B514210446EA
:1048EC0000F0C1F9204610BD10B54FF47A730446A0
:1048FC0008460021C4E90113044B236001232074F2
:10490C0063741146FFF7AAFC204610BDD04D0D0074
:10491C00007C0022FFF7AABC007CFFF7D7BC10B5C7
:10492C0014220446002100F0BDF9204610BD000001
:10493C0010B5104C88B003A8FFF7F1FF2178BFF336
:10494C005B8F11F0010111D120460191FFF79DFB06
:10495C00019958B103AA0848FFF7C6FF2046FFF794
:10496C0099FB064A0649044800F078F9024808B059
:10497C0010BD00BFA4E60320A8E603204CE60320EC
:10498C007F480D0070474174704708B5007CFFF7F5
:10499C005DFC20EAE07008BD08B5007CFFF736FC32
:1049AC0020EAE07008BD08B5007CFFF73FFC40EA48
:1049BC00E07008BD08B5007CFFF730FC40EAE07001
:1049CC0008BD007CFFF73ABC37B5457C04462DB1D9
:1049DC00207C03B0BDE83040FFF710BC007C019197
:1049EC00FFF734FC00280199F2DC284603B030BDF7
:1049FC0010B51421044600F036F9204610BD000015
:104A0C0010B54FF0000C0446084611464FF47A726C
:104A1C00C4E901C2044A22600122207462741A465D
:104A2C00FFF7E4FB204610BD004E0D0013B50E4CF5
:104A3C002178BFF35B8F11F0010112D12046019157
:104A4C00FFF723FB019960B1084A094B0948FFF7AE
:104A5C00D7FF2046FFF71EFB074A0849054800F020
:104A6C00FDF8044802B010BDBCE60320C0E60320EC
:104A7C0044E70320C8E703204CE6032091490D00CE
:104A8C00002240681146FFF76DBC002240681146B9
:104A9C00FFF788BC002240681146FFF793BC4068C2
:104AAC000022FFF787BC4068002281F00101FFF76C
:104ABC0071BC002340681A461946FFF763BC0023FB
:104ACC0040681A461946FFF755BC0022406811464B
:104ADC00FFF738BC406800220221FFF73BBC0023E3
:104AEC0040681A46FFF726BC024B04225A60024A61
:104AFC001A607047DCE70320304E0D00002340683D
:104B0C001A46FFF717BC406800220221FFF722BCAF
:104B1C00002240681146FFF715BC00224068114680
:104B2C00FFF720BC002340681A461946FFF722BC49
:104B3C00002340681A461946FFF724BC4068002140
:104B4C00FFF748BC40680021FFF74CBC40680022CE
:104B5C0081F00101FFF71EBC40680022FFF72ABC60
:104B6C00002240681146FFF72DBC00224068114618
:104B7C00FFF718BC2DE9F043002495B016460D46FE
:104B8C000746FFF73DFE214618220EA8009400F0C0
:104B9C0089F84023CDE90C3421466B460CAA3046EB
:104BAC00FFF7ECFA0446002846D10246012168685A
:104BBC00FFF7D8FB0221804622466868FFF7D2FB3C
:104BCC00009E81462146002E36D0002934D17368D0
:104BDC00022B03D00A2B0BD0F669F4E7B8F1000FC7
:104BEC0004D0716938460431FFF737FE4146F3E7CC
:104BFC00B9F1000F01D14946EEE77469102201A802
:104C0C0000F050F806238DF8143001AD04F10803C0
:104C1C001834186859682A4603C20833A34215464B
:104C2C00F7D101A906A807ADFFF7F8FD0FCD3C1D84
:104C3C000FC42B682370DEE70098FFF797FA38460D
:104C4C0015B0BDE8F0830000024B034A1A60002245
:104C5C005A607047E4E703206C4E0D000B4601468A
:104C6C00184600F003B8FFF70EBA000010B5054C5B
:104C7C0013462CB10A4601460220AFF3008010BD4A
:104C8C002046FCE7000000000A44914200F1FF338B
:104C9C0000D1704710B511F8014B03F8014F914248
:104CAC00F9D110BD02440346934200D1704703F87A
:104CBC00011BF9E738B50D4B1D68AB6B04467BB98E
:104CCC001820FFF7A7FB0A4A0A4BA863C0E9002388
:104CDC00094B83600B23838101220023C0E9042349
:104CEC00AB6B00221C615A6138BD00BFE8E50320A4
:104CFC000E33CDAB34126DE6ECDE0500034613F833
:104D0C00012B002AFBD1181A013870471D400D00E9
:104D1C0059400D0081400D0085400D000000000041
:104D2C00535441525445442050524F4752414D0028
:104D3C0053657269616C20636F6E6E656374656434
:104D4C003A207374617274696E6700000000000091
:104D5C0000000000AF440D00A5440D009B440D0065
:104D6C0091440D0085440D0079440D00494B0D0014
:104D7C00514B0D006D440D0065440D005B440D005E
:104D8C0051440D00814B0D006170700025592D258B
:104D9C006D2D25645425483A254D3A2553257A0026
:104DAC0061736374696D6500000000000000000011
:104DBC00A9470D0099470D009B470D00000000000E
:104DCC00000000007F480D00E7480D00BD480D00B5
:104DDC0061450D00AF480D0081480D0091480D0054
:104DEC00E1480D00A1480D007B480D0000000000BB
:104DFC000000000091490D00FD490D00D5490D0042
:104E0C0061450D00A5490D00C1490D00B3490D00C8
:104E1C00CF490D0093490D0097490D00000000008B
:104E2C0000000000EB4A0D00E14A0D00D74A0D00CE
:104E3C008D4A0D00CB4A0D00BF4A0D00494B0D00A9
:104E4C00514B0D00B34A0D00AB4A0D00A14A0D00A9
:104E5C00974A0D00814B0D0000000000000000007F
:104E6C00094B0D00134B0D001D4B0D00274B0D0076
:104E7C00314B0D003D4B0D00494B0D00514B0D00BE
:104E8C00594B0D00654B0D006D4B0D00774B0D0014
:104E9C00814B0D003D410D006F410D00B9440D00DB
:104EAC00ED440D0039450D0021460D0031460D0035
:104EBC0059460D00F54A0D00554C0D000000000040
:044ECC0000000000E2
:044ED00000000000DE
:104ED400AC4D0D00ECE503200000000000000000D4
:104EE40000000000000000000000000000000000BE
:104EF40000000000000000000000000000000000AE
:104F0400000000000000000000000000000000009D
:104F1400000000000000000000000000000000008D
:104F2400000000000000000000000000000000007D
:084F3400000000000000000075
:104F3C00FFFFFFFF00000102030405060708090A32
:104F4C000B0C0D0E0F101112131415161718191A2D
:084F5C001B1C1D1E1F20280074
:044F64007856341235
:04000003D000401CCD
:00000001FF
