:02000004080AE8
:1000000000000A0818210A08000006000600050181
:080010000402350800000000A5
:04001800801D0A0835
:1000200009480A4908B5884205D0094A824202D0E7
:10003000121A01F063FE0748074A0021121A01F064
:100040006BFE064808BD00BF0000002074200A08AF
:100050007C0000207C000020B0050020B0050020BE
:1000600070B500F053FE0025054E064CA41BA408F5
:10007000A54200D170BD56F8043B98470135F7E71B
:1000800050200A0870200A0800F000B908B500F0F6
:100090007BF9BDE8084000F0FBBD00F0A5BC00F016
:1000A000A3BC00F0A9BC0078B0FA80F0400970470A
:1000B00001230370704703681847012A03D0022AFE
:1000C00003D0002070470160FBE70B680360F8E78E
:1000D000012310B503748368044643B1C068984790
:1000E000012300206374BDE8104000F00FBB0068DE
:1000F0000028F5D083680BB901F0F9F9C368EEE781
:100100000EB403B503AB53F8042B0121019300F0A7
:100110002BFD02B05DF804EB03B0704710B58368A7
:10012000044613B1032201469847204610BD38B556
:100130000568044635B12846FFF7F0FF1021284630
:1001400001F0CFF92046BDE83840142101F0C9B9CB
:100150002DE9F0430746884614202A4985B0164603
:10016000994601F0C0F9044630B10022C0E90022EE
:10017000C0E90222027442743C60002C38D0102086
:10018000204901F0B0F90546A0B196E8030000222D
:1001900002AB83E8030095E8030086E8030093E8D8
:1001A0000300B36885E80300B260AB60EA68F368F7
:1001B000F260EB602668256036B13046FFF7AEFF8F
:1001C0001021304601F08DF93868036883B10C9B2B
:1001D0004A46CDE9000341460B4B043000F05EFA7D
:1001E00030B93B681B7C4BB9012000F03FFAF8E7BF
:1001F000002338683B6008B1FFF799FF384605B027
:10020000BDE8F0834C200A08D1000A0810B5036845
:1002100004469BB1586800F049FA78B923685A7CC3
:1002200012B9586800F04AFA2368586800F04EFA8C
:1002300000232068236008B1FFF779FF206808B128
:10024000FFF775FF204610BD10B54422002104467B
:1002500001F062FD4FF4807347F65562238000235E
:10026000E261A262084A237684F8263084F83230AC
:10027000A38604F1380307CA83E807000123204658
:1002800084F8483010BD00BF0C1F0A082DE9F04368
:10029000334C97B000F03EFE324D4FF4165100F053
:1002A0001BFE2088012101F095F82888002101F02B
:1002B00091F820880024002101F09DF800944FF06F
:1002C000FF3322462849288800F08CFE274B4C2219
:1002D000214603A81C7001F01FFD03A8FFF7B4FF1F
:1002E000492203A9224801F009FD204600F0CEF979
:1002F00047F22F5805464FF00009002000F0C6F9DC
:10030000461B61EB0407B94508BFB04507D300F0B1
:1003100001FE00F0E5FD10B900F056FBEDE700F03E
:10032000F9FD00F0DDFD00F0F5FD124900F0F5FBF0
:10033000114B12490393124B03AA0693114B02A8C7
:1003400005934FF4406300930223FFF701FF03A8D6
:10035000FFF7E4FE02A8FFF759FF17B0BDE8F083EE
:100360001000002008000020C1030A0881000020BE
:100370008C000020941D0A088D050A08AF1D0A088C
:10038000B7000A08BB000A0870470000012810B532
:10039000044604D0032808D0064B1C7010BD00F0A2
:1003A000B9FD054900F0B9FBF6E700F0B3FD0349DC
:1003B000F8E700BF81000020BC1D0A08C41D0A0820
:1003C0002DE9F74300F05AF94D4E00243368C51A61
:1003D00000F054F94B4B3060186801F0DDF942A38E
:1003E000D3E900238046894601F040FA01F050FC31
:1003F000854254DB3EA3D3E900234046494601F041
:1004000035FA01F045FC854207463F4E24DD00F0F9
:1004100081FD3E4900F081FB347002243C4F00F026
:1004200079FD97F800C033783A493B4ACDE900435B
:10043000BCF1000F08BF0A462B463849FFF760FEA3
:100440003B7883F001033B703378042B27D8DFE837
:1004500003F012232D363F0027A3D3E900234046A3
:10046000494601F003FA01F013FC8542D6DBBD4298
:10047000B8BF0124D2E714F0FD0F05D1012003B06D
:10048000BDE8F043FFF782BF00F044FD244903B00C
:10049000BDE8F04300F041BB24B90223337003B040
:1004A000BDE8F083012CFAD10320E8E7002CE5D069
:1004B00000F030FD22461B49FFF722FEDEE70CB9B3
:1004C0000423EBE7012CD9D000F024FD1649DEE728
:1004D000002CE9D000F01EFD22461249FFF710FE65
:1004E000E2E700BFAFF300809A9999999999E93FA3
:1004F0009A99999999990140CDCCCCCCCCCCFC3F20
:10050000840000200400002081000020D51D0A087E
:1005100082000020D11D0A08CC1D0A08191E0A08F5
:10052000581E0A087C1E0A08AE1E0A0808B5064BAB
:100530000146188800F05FFF044B05481968BDE8C4
:10054000084000F0CBB800BF100000200C000020D5
:1005500088000020F8B505460E4600240A4FB44234
:1005600010DA2A5D3B789A4207D10120FFF7DEFFBF
:100570000020FFF7DBFF0134F1E70020FFF7D6FF93
:100580000120F6E7F8BD00BF0000002007B500F02D
:10059000C1FC134900F0C1FA124E134D134C2B78D5
:1005A0003278082168468DF800208DF801308DF8EA
:1005B00002208DF803308DF804208DF805308DF879
:1005C00006308DF80730FFF7C5FF00F0A3FC214689
:1005D00000F0A3FA4FF4FA61054800F07FF8DEE777
:1005E000ED1E0A088000002000000020021F0A08FB
:1005F0008800002008B50021012000F069F90248B8
:10060000FFF722FE08BD00BF8C00002008B5024B9A
:100610001B689B68019308BDB001060808B5024B32
:100620001B68DB68019308BDB001060808B5024BE2
:100630001B681B69019308BDB001060808B5024B91
:100640001B689B69019308BDB001060808B5024B01
:100650001B68DB69019308BDB001060808B5024BB1
:100660001B685B68019308BD9C01060808B5024B36
:100670001B689B68019308BD9C01060808B5024BE6
:100680001B685B69019308BD9C01060808B5024B15
:100690001B68DB6D019308BD9C01060808B5024B81
:1006A0001B685B68019308BDD001060808B5024BC2
:1006B0001B689B68019308BDD001060808B5024B72
:1006C0001B681B69019308BDD001060808B5024BE1
:1006D0001B685B69019308BDD001060808B5024B91
:1006E0001B689B69019308BDD001060808B5024B41
:1006F0001B685B6C019308BDD001060808B5024B6E
:100700001B689B6C019308BDD001060808B5024B1D
:100710001B68DB6E019308BDD001060808B5024BCB
:100720001B689B69019308BDC401060808B5024B0C
:100730001B685B6A019308BDC401060808B5024B3B
:100740001B689B6A019308BDC401060808B5024BEB
:100750001B68DB6A019308BDC401060808B5024B9B
:100760001B681B6B019308BDC401060808B5024B4A
:100770001B685B6B019308BDC401060808B5024BFA
:100780001B689B6B019308BDC401060808B5024BAA
:100790001B681B6C019308BDC401060808B5024B19
:1007A0001B681B6E019308BDAC01060808B5024B1F
:1007B0001B685B6E019308BDAC01060808B5024BCF
:1007C0001B689B6E019308BDAC01060808B5024B7F
:1007D0001B68DB6E019308BDAC01060808B5024B2F
:1007E0001B681B6F019308BDAC01060808B5024BDE
:1007F0001B685B6F019308BDAC01060808B5034B8D
:100800001B68D3F88030019308BD0000AC010608D6
:1008100008B5024B1B68DB69019308BDB4010608EB
:1008200008B5024B1B681B6A019308BDB40106089A
:1008300008B5024B1B681B68019308BDD801060868
:1008400008B5024B1B685B68019308BDD801060818
:1008500008B5024B1B681B69019308BDD801060847
:1008600008B5024B1B685B69019308BDD8010608F7
:1008700008B5024B1B689B69019308BDD8010608A7
:1008800008B5024B1B68DB69019308BDD801060857
:1008900008B5024B1B681B6A019308BDD801060806
:1008A00008B5024B1B689B6A019308BDD801060876
:1008B00008B5024B1B689B6C019308BDC00106087C
:1008C00008B5024B1B685B68019308BDA4010608CC
:1008D00008B5024B1B68DB6A019308BDA40106083A
:1008E00008B5034B1B68D3F89030019308BD000096
:1008F000A401060808B5034B1B68D3F89C3001938C
:1009000008BD0000A401060808B5024B1B685B681F
:10091000019308BDC801060808B5024B1B689B6817
:10092000019308BDC801060808B5024B1B68DB68C7
:10093000019308BDC801060808B5024B1B681B6976
:10094000019308BDC801060808B5024B1B685B6926
:10095000019308BDC801060808B5024B1B689B69D6
:10096000019308BDC801060808B5024B1B68DB6986
:10097000019308BDC801060808B5024B1B681B6A35
:10098000019308BDC801060808B5024B1B681B6B24
:10099000019308BDC801060808B5024B1B685B6BD4
:1009A000019308BDC801060808B5024B1B681B6C03
:1009B000019308BDC801060808B5024B1B685B6CB3
:1009C000019308BDC801060808B5024B1B689B6867
:1009D000019308BDCC01060808B5024B1B68DB6B10
:1009E000019308BDCC01060808B5024B1B681B68C3
:1009F000019308BDA001060808B5024B1B685B689F
:100A0000019308BDA001060808B5024B1B685B6A8C
:100A1000019308BDA001060808B5024B1B68DB6AFC
:100A2000019308BDA001060808B5024B1B685B6C6A
:100A3000019308BDA001060870B5002604460D46C6
:100A400040F8086FFFF752FE28462570FFF7E0FEDA
:100A50002046666070BD10B50446006818B1FFF707
:100A6000CBFF0023236010BD10B50446FFF7F3FF52
:100A7000204610BD0222002010B5084B084C1A6019
:100A8000084B2060A080A071A360FFF719FF2046EB
:100A9000BDE81040044A054900F01EBDE4000020F6
:100AA000D80000200000FFFF7C000020690A0A082F
:100AB000F8B506460D4600248F18BD420CD03368A9
:100AC00030469B6815F8011B9847031E01DB1C4448
:100AD000F3E7002C08BF1C462046F8BD70B505465C
:100AE0000C46084649B101F043F92B6802462146FD
:100AF0002846BDE87040DB68184770BD03689B68F6
:100B0000184738B50D210546FFF7F8FF0A210446BE
:100B10002846FFF7F3FF204438BD38B50546FFF7F8
:100B2000DDFF04462846FFF7ECFF204438BD0023D4
:100B3000012A98BF0A2230B58BB00C468DF82430BC
:100B400009A92546B4FBF2F404FB1253DBB2092BCE
:100B500094BF30333733DBB2AA4201F8013DF0D9FC
:100B6000FFF7BCFF0BB030BD2DE9F04186B000AF00
:100B700005460E46381D142114463B60FFF744FF1E
:100B800013280ED82846391DFFF7A8FF04461EB1CA
:100B90002846FFF7B6FF044420461837BD46BDE897
:100BA000F08100F1080323F00703E846ADEB030DE5
:100BB0002246411C3B686846FFF726FF69462846E7
:100BC000FFF78CFF0446C546E1E7002340681A465C
:100BD0001946FFF7B9BE0000014B024A1A60704780
:100BE000E8000020181F0A08024B1A68024B1A601E
:100BF000704700BF14000020EC00002010B5044630
:100C0000FFF78CFA204610BD00230348034A04492D
:100C1000836000F061BC00BFF00000207C00002079
:100C2000FD0B0A08014B1860704700BF1800002038
:100C300008B5134B43B100F06DF903681B69984781
:100C4000002801DDAFF300800E4B43B100F046FAFF
:100C500003681B699847002801DDAFF300800A4B49
:100C60000BB1AFF30080094B43B100F091F9036879
:100C70001B699847002801DDAFF3008008BD00BF65
:100C80000000000000000000000000000000000064
:100C900008B5FFF7CDFFFFF7F1FC014B186008BD69
:100CA0007C0500200248034A0349121A01F026B8C5
:100CB000004002400440024070200A08002307B5AB
:100CC0001A466FF077010093FFF714FE03B05DF84A
:100CD00004FB000007B543880A2B08D0502B0BD12A
:100CE000094B1B684BB103B05DF804EB1847FFF7E5
:100CF000E5FF03B05DF804FB00231A466FF07701AF
:100D00000093FFF7F7FDF4E70401002038B5124C1B
:100D100000211248FFF788FE114D2368AB420CBF3B
:100D2000012200220F4B1A7002D0FFF7BBFF256093
:100D3000FFF794FC044600F0F7FF0B4B13B120467D
:100D4000AFF3008000210848FFF746FEBDE83840B9
:100D500000210648FFF7C4BD00400240250C0A08E8
:100D60001E1C279A0001002000000000D50C0A0874
:100D7000704710B50446182100F0B3FB204610BDA3
:100D8000F8B50E46002400F10807051D17F8011DEF
:100D90000A223046FFF7CBFEAF42044401D1204681
:100DA000F8BD002CF2D02E213046FFF7A7FE0444F8
:100DB000ECE7000010B50446044B1122002140F876
:100DC000043B00F0A9FF204610BD00BF401F0A08E9
:100DD0000346074A10B543F8042B01F1100251F8FD
:100DE000044B914243F8044BF9D10A781A7010BDB4
:100DF000401F0A08024AC0E9002104220275704718
:100E0000401F0A0810B59DF8084044EA0324042353
:100E100044EA024444EA01644460037510BD0000E2
:100E200037B5044D05609DF818500095FFF7EAFFAF
:100E300003B030BD401F0A0841747047704708B5C1
:100E40000021007CFFF714FD40EAE07008BD08B502
:100E50000121007CFFF70CFD40EAE07008BD08B5F9
:100E6000007CFFF7FDFC20EAE07008BD08B5007CBF
:100E7000FFF7EEFC20EAE07008BD38B50446007CC0
:100E80000D46FFF7EDFC002801DC607C28B1294607
:100E9000207CFFF7F5FC20EAE07038BD007CFFF70E
:100EA000F7BC10B50446142100F01BFB204610BD12
:100EB00010B54FF47A73044608460021C4E90113C3
:100EC000044B20742360012311466374FFF7B0FCC8
:100ED000204610BD541F0A080022007CFFF7B0BC5A
:100EE000007CFFF7DDBC000010B504461422002191
:100EF00000F012FF054B20466360054BE36040F2B3
:100F0000011323818123238210BD00BF38010020FB
:100F10003902002030B50F4D87B001A8FFF7E4FF7C
:100F20002978BFF35B8F11F0010410D12846FFF739
:100F3000BAF860B1214601AA0748FFF7B9FF284671
:100F4000FFF7B6F8054A0649034800F0C5FA02481B
:100F500007B030BD08010020100100207C000020F7
:100F60003D0E0A0810B504461422002100F0D4FEFC
:100F7000054B20466360054BE36040F2011323817B
:100F80008123238210BD00BFBA020020BB030020D2
:100F900010B50F4C86B001A8FFF7E4FF2378BFF32C
:100FA0005B8FDB0710D42046FFF77DF860B101218D
:100FB00001AA0848FFF77CFF2046FFF779F8064AA8
:100FC0000649044800F088FA024806B010BD00BF88
:100FD0000C010020240100207C0000203D0E0A08A6
:100FE000004700002DE9FF4100241D460F469046B2
:100FF0000646FFF72BFB0423A5428DF80C30A8BF53
:101000009DF82830ADF80D408DF80F40A4BF03AC1B
:101010008DF80E303A464346304606490094A8BF44
:101020008DF80D50FFF70AFBB0FA80F0400904B0CC
:10103000BDE8F081E10F0A0870474174704708B5B8
:10104000007CFFF7A3FB20EAE07008BD08B5007C38
:10105000FFF774FB20EAE07008BD08B5007CFFF7DD
:101060007DFB40EAE07008BD08B5007CFFF76EFB31
:1010700040EAE07008BD007CFFF778BB70B5467CA5
:1010800004460D462EB12946207CBDE87040FFF78E
:101090004DBB007CFFF77AFB0028F4DC304670BDC6
:1010A00010B50446142100F01CFA204610BD0000C3
:1010B0004FF0000C10B50446084611464FF47A7202
:1010C000C4E901C2044A20742260012262741A46F3
:1010D000FFF724FB204610BD841F0A0838B50D4DCC
:1010E0002978BFF35B8F11F0010411D12846FEF778
:1010F000DAFF68B12146084A084B0948FFF7D8FFD4
:101100002846FEF7D5FF074A0749054800F0E4F9ED
:10111000034838BD3C04002040040020C4040020E3
:10112000480500207C00002039100A087047F8B5F7
:10113000064615460C468F18BC4206D0336830462A
:101140009B6814F8011B9847F6E72846F8BD002273
:10115000007CFFF723BB0021007CFFF727BB0021A9
:10116000007CFFF72BBB0021007CFFF72FBB002189
:10117000007CFFF733BB10B50446142100F0B1F931
:10118000204610BD10B54FF47A730446084600217E
:10119000C4E90113034B114623602074FFF72EFBB3
:1011A000204610BDB41F0A08002240681146FFF710
:1011B000C3BBF0B5154689B011220E460446002186
:1011C00003A800F0A9FD284600F0D2FD002781B257
:1011D00073682846009703AAFFF76AFB30B13946C7
:1011E0002046FFF707FE204609B0F0BD204603A9C0
:1011F000FFF7EEFDF7E7002240681146FFF7BCBBA2
:10120000002240681146FFF7C7BB00224068FFF785
:10121000BBBB0022406881F00101FFF7A5BB0023A2
:1012200040681A461946FFF797BB002240681146EE
:10123000FFF772BB002202214068FFF775BB002355
:1012400040681A46FFF760BB0422024B5A60024A0C
:101250001A6070475C050020DC1F0A080023406804
:101260001A46FFF751BB002202214068FFF75CBB22
:10127000002240681146FFF74FBB0022406811462C
:10128000FFF75ABB002340681A461946FFF75CBBBC
:10129000002340681A461946FFF75EBB00214068EC
:1012A000FFF782BB00214068FFF786BB0022406841
:1012B00081F00101FFF758BB00224068FFF764BBD3
:1012C000002240681146FFF767BB002240681146C4
:1012D000FFF752BB70B515468EB0044608A8FFF75D
:1012E00069FD1122002103A800F016FD0026284602
:1012F00000F03EFD0A4B009681B25B68284603AAC7
:10130000FFF7D6FA30B131462046FFF773FD20468D
:101310000EB070BD204603A9FFF75AFDF7E700BFE6
:101320005C050020024B034A1A6000225A60704795
:101330006405002018200A0810B50446806808B12A
:10134000FFF7DCF9204610BD172870B5044601D917
:10135000002070BDA0F10D03022B0BD9012826D867
:1013600000F092F80021007CFFF740FA80F00100C5
:10137000C0B2EEE7134E3178BFF35B8F11F0010579
:101380000FD13046FEF78FFE58B129460E48FFF7C1
:1013900053FB3046FEF78CFE0C4A0D490A4800F01C
:1013A0009BF8094B1878FFF73BFA0028D0D1123C84
:1013B000012C05D8FFF792FE007CFFF7DFF9D5E797
:1013C0000120C6E76C050020700500207C0000208D
:1013D00039130A08172838B504460D460AD8FF29DC
:1013E00008D0FFF7B1FF28B129462046BDE83840B4
:1013F000FFF70CB938BD38B504460D46FFF70EF9B6
:10140000FF2810D0062804D84D2323FA00F0C30784
:1014100009D42046FFF798FF28B129462046BDE8A9
:101420003840FFF703B938BD002313B5074C1A46FF
:10143000194620460093FFF7F3FC2046044A05496D
:1014400002B0BDE8104000F047B800BF80050020A2
:101450007C000020710D0A08002370B52025438010
:101460001423084E044603803146856005612846F2
:1014700000F03BF831466060284600F036F8E06046
:10148000204670BD4C200A0830B50F4D87B0297832
:10149000BFF35B8F11F0010413D12846FEF703FE62
:1014A00078B101A8FFF7D8FF214601AA0748FFF746
:1014B00069FE2846FEF7FCFD054A0649034800F090
:1014C0000BF8024807B030BD980500209C050020AD
:1014D0007C0000202D110A080B460146184600F03A
:1014E000FFBBFEF7DEBDFEF7D8BDFEF7D8BD08B5E1
:1014F000FFF792FA81F0004102E000BF83F0004361
:1015000030B54FEA41044FEA430594EA050F08BF9E
:1015100090EA020F1FBF54EA000C55EA020C7FEA62
:10152000645C7FEA655C00F0E2804FEA5454D4EBDF
:101530005555B8BF6D420CDD2C4480EA020281EAA9
:10154000030382EA000083EA010180EA020281EAE1
:101550000303362D88BF30BD11F0004F4FEA013133
:101560004FF4801C4CEA113102D0404261EB410142
:1015700013F0004F4FEA03334CEA133302D05242C8
:1015800063EB430394EA050F00F0A780A4F1010484
:10159000D5F1200E0DDB02FA0EFC22FA05F28018BE
:1015A00041F1000103FA0EF2801843FA05F35941A4
:1015B0000EE0A5F120050EF1200E012A03FA0EFC23
:1015C00028BF4CF0020C43FA05F3C01851EBE3714D
:1015D00001F0004507D54FF0000EDCF1000C7EEB6A
:1015E00000006EEB0101B1F5801F1BD3B1F5001FA8
:1015F0000CD349085FEA30004FEA3C0C04F10104C7
:101600004FEA445212F5800F80F09A80BCF1004FEF
:1016100008BF5FEA500C50F1000041EB045141EA71
:10162000050130BD5FEA4C0C404141EB0101013C3A
:1016300028BFB1F5801FE9D291F0000F04BF014629
:101640000020B1FA81F308BF2033A3F10B03B3F1FB
:1016500020020CDA0C3208DD02F1140CC2F10C028B
:1016600001FA0CF021FA02F10CE002F11402D8BFE9
:10167000C2F1200C01FA02F120FA0CFCDCBF41EAB5
:101680000C019040E41AA2BF01EB0451294330BD84
:101690006FEA04041F3C1CDA0C340EDC04F1140461
:1016A000C4F1200220FA04F001FA02F340EA030038
:1016B00021FA04F345EA030130BDC4F10C04C4F17E
:1016C000200220FA02F001FA04F340EA030029465E
:1016D00030BD21FA04F0294630BD94F0000F83F4A8
:1016E000801306BF81F480110134013D4EE77FEA8B
:1016F000645C18BF7FEA655C29D094EA050F08BFD7
:1017000090EA020F05D054EA000C04BF19461046B7
:1017100030BD91EA030F1EBF0021002030BD5FEAFB
:10172000545C05D14000494128BF41F0004130BD23
:1017300014F580043CBF01F5801130BD01F0004577
:1017400045F0FE4141F470014FF0000030BD7FEAEA
:10175000645C1ABF194610467FEA655C1CBF0B46E5
:10176000024650EA013406BF52EA033591EA030FFC
:1017700041F4002130BD00BF90F0000F04BF0021F4
:10178000704730B54FF4806404F132044FF0000527
:101790004FF0000150E700BF90F0000F04BF0021A0
:1017A000704730B54FF4806404F1320410F0004506
:1017B00048BF40424FF000013EE700BF42004FEA01
:1017C000E2014FEA31014FEA02701FBF12F07F437E
:1017D00093F07F4F81F06051704732F07F4208BF35
:1017E000704793F07F4F04BF41F40021704730B53C
:1017F0004FF4607401F0004521F000411CE700BF88
:1018000050EA010208BF704730B54FF000050AE00A
:1018100050EA010208BF704730B511F0004502D50B
:10182000404261EB41014FF4806404F132045FEA0D
:10183000915C3FF4D8AE4FF003025FEADC0C18BFB6
:1018400003325FEADC0C18BF033202EBDC02C2F1A8
:10185000200300FA03FC20FA02F001FA03FE40EA3A
:101860000E0021FA02F11444BDE600BF70B54FF03E
:10187000FF0C4CF4E06C1CEA11541DBF1CEA13551C
:1018800094EA0C0F95EA0C0F00F0DEF82C4481EA84
:10189000030621EA4C5123EA4C5350EA013518BFA4
:1018A00052EA033541F4801143F4801338D0A0FB91
:1018B00002CE4FF00005E1FB02E506F00042E0FB3E
:1018C00003E54FF00006E1FB03569CF0000F18BF44
:1018D0004EF0010EA4F1FF04B6F5007F64F54074EC
:1018E00004D25FEA4E0E6D4146EB060642EAC6217F
:1018F00041EA55514FEAC52040EA5E504FEACE2EEC
:10190000B4F1FD0C88BFBCF5E06F1ED8BEF1004FEE
:1019100008BF5FEA500E50F1000041EB045170BD6A
:1019200006F0004646EA010140EA020081EA0301AE
:10193000B4EB5C04C2BFD4EB0C0541EA045170BDAA
:1019400041F480114FF0000E013C00F3AB8014F124
:10195000360FDEBF002001F0004170BDC4F100046D
:10196000203C35DA0C341BDC04F11404C4F12005EE
:1019700000FA05F320FA04F001FA05F240EA020049
:1019800001F0004221F0004110EBD37021FA04F67F
:1019900042EB06015EEA430E08BF20EAD37070BD39
:1019A000C4F10C04C4F1200500FA04F320FA05F098
:1019B00001FA04F240EA020001F0004110EBD3709A
:1019C00041F100015EEA430E08BF20EAD37070BD0A
:1019D000C4F1200500FA05F24EEA020E20FA04F3E3
:1019E00001FA05F243EA020321FA04F001F0004192
:1019F00021FA04F220EA020000EBD3705EEA430E03
:101A000008BF20EAD37070BD94F0000F0FD101F031
:101A10000046400041EB010111F4801F08BF013C6A
:101A2000F7D041EA060195F0000F18BF704703F0A8
:101A30000046520043EB030313F4801F08BF013D2F
:101A4000F7D043EA0603704794EA0C0F0CEA1355EB
:101A500018BF95EA0C0F0CD050EA410618BF52EAA5
:101A60004306D1D181EA030101F000414FF00000AB
:101A700070BD50EA410606BF1046194652EA4306B9
:101A800019D094EA0C0F02D150EA013613D195EA2D
:101A90000C0F05D152EA03361CBF104619460AD175
:101AA00081EA030101F0004141F0FE4141F470017F
:101AB0004FF0000070BD41F0FE4141F4780170BD6F
:101AC00070B54FF0FF0C4CF4E06C1CEA11541DBFD4
:101AD0001CEA135594EA0C0F95EA0C0F00F0A7F8D6
:101AE000A4EB050481EA030E52EA03354FEA013103
:101AF00000F088804FEA03334FF0805545EA131316
:101B000043EA12634FEA022245EA111545EA1065DD
:101B10004FEA00260EF000419D4208BF964244F174
:101B2000FD0404F5407402D25B084FEA3202B61A93
:101B300065EB03055B084FEA32024FF480104FF467
:101B4000002CB6EB020E75EB030E22BFB61A7546DB
:101B500040EA0C005B084FEA3202B6EB020E75EB6E
:101B6000030E22BFB61A754640EA5C005B084FEAD6
:101B70003202B6EB020E75EB030E22BFB61A7546A3
:101B800040EA9C005B084FEA3202B6EB020E75EBAE
:101B9000030E22BFB61A754640EADC0055EA060E6F
:101BA00018D04FEA051545EA16754FEA06164FEAB2
:101BB000C30343EA52734FEAC2025FEA1C1CC0D15E
:101BC00011F4801F0BD141EA00014FF000004FF0EB
:101BD000004CB6E711F4801F04BF01430020B4F1AC
:101BE000FD0C88BFBCF5E06F3FF6AFAEB5EB030C64
:101BF00004BFB6EB020C5FEA500C50F1000041EB61
:101C0000045170BD0EF0004E4EEA113114EB5C042D
:101C1000C2BFD4EB0C0541EA045170BD41F4801100
:101C20004FF0000E013C90E645EA060E8DE60CEA08
:101C3000135594EA0C0F08BF95EA0C0F3FF43BAF25
:101C400094EA0C0F0AD150EA01347FF434AF95EADC
:101C50000C0F7FF425AF104619462CE795EA0C0FC0
:101C600006D152EA03353FF4FDAE1046194622E78D
:101C700050EA410618BF52EA43067FF4C5AE50EA67
:101C800041047FF40DAF52EA43057FF4EBAE12E757
:101C90004FEA410212F5001215D211D56FF4787394
:101CA000B3EB625212D94FEAC12343F0004343EA37
:101CB000505311F0004F23FA02F018BF4042704712
:101CC0004FF00000704750EA013005D111F000409C
:101CD00008BF6FF0004070474FF00000704700BF32
:101CE00010B504460448134620B10A460220214696
:101CF000AFF3008010BD00BF000000000A44914215
:101D000000F1FF3300D1704710B511F8014B91423B
:101D100003F8014FF9D110BD03460244934200D1AC
:101D2000704703F8011BF9E738B50D4B04461D68F1
:101D3000AB6B7BB91820FEF757FE0A4A0A4BA86323
:101D4000C0E90023094B012283600B238381002318
:101D5000C0E904230022AB6B1C615A6138BD00BF8F
:101D6000180000200E33CDAB34126DE6ECDE05001A
:101D7000034613F8012B002AFBD1181A01387047CB
:101D800021000A0861000A0889000A088D000A0873
:101D90000000000053657269616C20636F6E6E65B0
:101DA000637465643A207374617274696E67006F5E
:101DB000757470757454687265616400524541446D
:101DC0003A203000524541443A20310048494748C2
:101DD000004C4F570053657474696E6720437572E9
:101DE00072656E74496E7075745374617465207495
:101DF0006F2027696E697469616C27206265636171
:101E0000757365206C6F6E6720706572696F6420F2
:101E1000646574656374656400526561642025734C
:101E200020696D70756C7365206475726174696F7B
:101E30006E3A202564206D73202D3E2023256420DA
:101E40002843757272656E74496E7075745374614F
:101E500074653A20256429004552524F523A206950
:101E60006E697469616C20737461746520676F7446
:101E7000206C6F6E67506572696F64004552524FF7
:101E8000523A2065787065637465642073686F7278
:101E900074506572696F6420696E2077616974207F
:101EA000737461746520676F742023256400554E38
:101EB000444546494E4544206265686176696F75C0
:101EC0007220666F7220766572794C6F6E6750650E
:101ED00072696F6420696E20696E707574537461E5
:101EE000746520276F7574707574312700537461A1
:101EF0007274696E67206F7574707574206C6F6F83
:101F000070002D2D2D2D2D2D2D2D2D0001000000CB
:101F10000A000000640000006170700025592D2542
:101F20006D2D25645425483A254D3A2553257A00D0
:101F300061736374696D65000000000000000000BB
:101F4000810D0A08710D0A08730D0A0800000000CF
:101F5000000000003D0E0A08A30E0A087B0E0A08C6
:101F6000B10A0A086D0E0A083F0E0A084F0E0A0849
:101F70009D0E0A085F0E0A08390E0A0800000000CC
:101F80000000000039100A08A1100A087D100A0894
:101F9000B10A0A084D100A0869100A085B100A08FD
:101FA00077100A083B100A083F100A0800000000DA
:101FB000000000002D110A0877110A084F110A08C5
:101FC0002F110A0857110A085F110A0867110A0839
:101FD0006F110A0800000000000000003F120A080C
:101FE00035120A082B120A08A9110A08CB0B0A0895
:101FF0001F120A089D120A08A5120A0813120A08DD
:102000000B120A0801120A08F7110A08B3110A088C
:1020100000000000000000005D120A0867120A08B4
:1020200071120A087B120A0885120A0891120A081E
:102030009D120A08A5120A08AD120A08B9120A0868
:10204000C1120A08CB120A08D5120A0800000000C3
:10205000F5050A08750A0A08D90B0A08E90B0A08E7
:10206000090C0A0849120A0825130A0829140A0843
:04207000000000006C
:1020740001000000F401000007000000F40100006A
:1020840006000000301F0A081C00002000000000A9
:10209400000000000000000000000000000000003C
:1020A400000000000000000000000000000000002C
:1020B400000000000000000000000000000000001C
:1020C400000000000000000000000000000000000C
:1020D40000000000000000000000000000000000FC
:0C20E400000000000000000000000000F0
:1020F000FFFFFFFF00000102030405060708090AAD
:102100000B0C0D0E0F101112131415161718191AA7
:082110001B1C1D1E1F202800EE
:0421180078563412AF
:04000005080A0020C5
:00000001FF
